:020000040800F2
:100000000017002029020008CB1F0008BB1A0008B7
:10001000C91F000861060008152300080000000041
:100020000000000000000000000000009101000836
:100030006306000800000000D5010008F92100084F
:10004000430200084302000843020008430200087C
:10005000430200084302000843020008430200086C
:10006000430200084302000843020008430200085C
:10007000430200084302000843020008430200084C
:10008000430200084302000843020008430200083C
:10009000430200084302000843020008430200082C
:1000A00043020008912200084302000843020008AE
:1000B000430200084302000843020008430200080C
:1000C00043020008430200084302000843020008FC
:1000D00043020008430200084302000843020008EC
:1000E00043020008430200084302000800F002F83F
:1000F00000F03FF80AA090E8000C82448344AAF183
:100100000107DA4501D100F034F8AFF2090EBAE880
:100110000F0013F0010F18BFFB1A43F0010318473B
:100120009C300000BC300000103A24BF78C878C171
:10013000FAD8520724BF30C830C144BF04680C60ED
:10014000704700000023002400250026103A28BF35
:1001500078C1FBD8520728BF30C148BF0B60704739
:10016000642900F0C980002070471FB51FBD10B57D
:1001700010BD00F0D0F91146FFF7F7FF02F0E2F8EA
:1001800000F0EEF903B4FFF7F2FF03BC00F0F6F95C
:10019000224B19680868B0E8F00F80F30988BFF3B4
:1001A0006F8F4FF0000080F311884EF00D0E7047F6
:1001B0000000000006480068006880F3088862B606
:1001C00061B6BFF34F8FBFF36F8F00DF00BF00BF7B
:1001D00008ED00E0EFF30980BFF36F8F0F4B1A6853
:1001E00020E9F00F106008B54FF0500080F311883F
:1001F000BFF34F8FBFF36F8F02F08CFD4FF0000005
:1002000080F31188BDE8084019680868B0E8F00F6D
:1002100080F30988BFF36F8F704700BF2400002070
:10022000EFF3058070470000094880470948004700
:10023000FEE7FEE7FEE7FEE7FEE7FEE7FEE7FEE796
:10024000FEE7FEE704480549054A064B70470000F3
:100250008D220008ED00000800110020001700208A
:1002600000130020001300200FB41CB5074B06AA92
:100270007B4469460090059800F035F900206946F6
:1002800000F044F91CBC5DF814FB0000990200006A
:100290002DE9F0410E460446002020622046E16828
:1002A000884730B3252805D0D4E901219047206A3A
:1002B000401CF2E7E168204600278847050018D077
:1002C000A5F14100192802D820354FF400673246C5
:1002D000294620462760FFF743FF40B1012804D09C
:1002E000F61D26F007060836D8E7361DD6E728465D
:1002F000DAE7206ABDE8F0812DE9F04106460024E6
:1003000010687529314616A510D0AFF3008000287B
:1003100002DA404213A507E031688A0701D512A529
:1003200002E0490704D511A5012401E0AFF30080E4
:1003300000210A2206F1240709E0B0FBF2FCB0FB21
:10034000F2F302FB1C00303078541846491C002898
:10035000F3D123462A463046BDE8F04100F064B8A8
:10036000000000002D0000002B0000002000000015
:1003700010B5203AC0F00B80B1E81850203AA0E840
:100380001850B1E81850A0E81850BFF4F5AF5FEA74
:10039000027C24BFB1E81850A0E8185044BF18C927
:1003A00018C0BDE810405FEA827C24BF51F8043BCE
:1003B00040F8043B08BF7047D20728BF31F8023B22
:1003C00048BF11F8012B28BF20F8023B48BF00F8B6
:1003D000012B70474FF0000200B513469446964635
:1003E000203922BFA0E80C50A0E80C50B1F1200148
:1003F000BFF4F7AF090728BFA0E80C5048BF0CC0F6
:100400005DF804EB890028BF40F8042B08BF704753
:1004100048BF20F8022B11F0804F18BF00F8012BC5
:1004200070477047704770472DE9F0470D46994671
:100430009246044600F124080168880604D5E06964
:1004400021F01001216000E00120A84201DD471BDE
:1004500000E00027A1697A1902EB0900081AA061DF
:100460002078C00602D42046AFF30080002608E0C2
:10047000D4E901211AF806009047206A401C761C36
:1004800020624E45F4DB2078C0060AD52046AFF343
:10049000008006E0D4E9012130209047206A401C0A
:1004A0002062381EA7F10107F4DC07E0D4E901213E
:1004B00018F805009047206A401C2062281EA5F10C
:1004C0000105F3DC2046AFF300802078000602D55A
:1004D0000220BDE8F0870120FBE7000001694A1C0B
:1004E00002610878704700B58FB0CDE90131002175
:1004F000059105497944CDE9031011466846FFF797
:10050000C7FE0FB000BD0000E5FFFFFF0A6802F85C
:10051000010B0A607047754600F02CF8AE460500E6
:100520006946534620F00700854618B020B5FFF70E
:1005300089FEBDE820404FF000064FF000074FF065
:1005400000084FF0000B21F00701AC46ACE8C009F1
:10055000ACE8C009ACE8C009ACE8C0098D467047FA
:1005600010B50446AFF300802046BDE81040FFF709
:1005700009BE0000004870479C1000200149182067
:10058000ABBEFEE7260002007047000070B50446CF
:1005900000688168C943C90717D1816821F001014A
:1005A000816000F0E1FB05460AE000BF00F0DCFBE3
:1005B000401B022804D920688068C043C00706D0C9
:1005C00020688068C043C007F0D0002070BDA06ADA
:1005D00040F01000A062E06A40F00100E0620120FB
:1005E00070BD0000F8B500260446009600688168DA
:1005F000C943C9072DD0816841F0010181601648C7
:1006000016490068B0FBF1F000E0401E00900028A1
:10061000FBD100F0A9FB054616E000BF00F0A4FBEB
:10062000401B022810D920688068C043C0070BD047
:10063000A06A40F01000A062E06A40F00100E062B1
:1006400084F824600120F8BD20688068C043C0079A
:10065000E4D10020F8BD00002000002040420F003F
:10066000FEE7704770B50546012806D1002108460F
:1006700001F090FB09A001F011FC0024C82607E05E
:100680002146002001F086FB04A001F007FC641C59
:1006900095FBF6F0A042F3DC70BD00003D000000C9
:1006A000F8B50024009490F824202546012A12D0A1
:1006B000012280F824204A681F23072A0DD20668E9
:1006C000776B521E02EB820293409F430B6893406C
:1006D0001F43776319E00220F8BD06680D2A0AD28D
:1006E000376BD21F02EB820293409F430B6893400B
:1006F0001F43376309E0F76A0D3A02EB8202934029
:100700009F430B6893401F43F7620A6807230668FC
:100710000A2A0AD3F7680A3A02EB420293409F433F
:100720008B6893401F43F76008E0376902EB420291
:1007300093409F438B6893401F4337610A68102A98
:1007400001D0112A20D1124B02689A4217D1936826
:100750001B0219D4936843F40003936009681029BD
:1007600012D10C490C4A0968B1FBF2F101EB81018D
:10077000490000E0491E00910029FBD104E0816A94
:1007800041F020018162012480F824502046F8BD08
:10079000002401402000002040420F000068C06C8F
:1007A000704700002DE9F0414FF0000704003D467E
:1007B0007ED0A06A002628B9E66284F8246020462C
:1007C00000F07EF82046FFF7E1FEA16A01F010017B
:1007D000014304D0A06A40F01000A06268E0A16A62
:1007E00021F4885141F00201A1626268E169237B32
:1007F0000A4347EA43010A43A1684FF48077B942AC
:1008000008D0012906D0002194F814C0BCF1010FD2
:1008100002D00AE03946F7E7F3B1A36A43F02003B8
:10082000A362E36A43F00103E3622368D3F804C0E0
:100830002CF4694C4CEA010CC3F804C02368996895
:10084000DFF870C001EA0C0111439960A168B94258
:100850000BD0012909D00CE0DFF85CC0A3690CEBD8
:1008600043330B4343F40061DFE7218A0D05A5F50F
:1008700080152168CB6A23F470032B43CB62216877
:1008800089680E4B1940914208D1E662A16A21F0B5
:10089000020141F00101A162BDE8F081A06A20F0EF
:1008A000020040F01000A062E06A40F00100E06247
:1008B0000120F1E7FDF7E1FF00E0FFFFFE0E1FFF63
:1008C00000B585B00021009101910291039100686B
:1008D0000E49884218D10E48816941F40071816146
:1008E000816901F400710491816941F00401816121
:1008F0008069694600F00400049001200090032004
:100900000190044800F032F905B000BD0024014018
:1009100000100240000801402DE9F84300270D4671
:100920000446009700F020FA804620688168C905D7
:1009300008D5A06A40F02000A06284F8247001204D
:10094000BDE8F8834168C90503D4C06A10F4700F8C
:100950002AD0022000F05AFC3B490968B1FBF0F6AE
:100960002068036939490B424FEA61014FEAA1123D
:100970001FD1C3684FEA611C13EA0C0F19D1036938
:100980000B4225D1C068104222D1142023E0681CFC
:100990000AD02DB100F0E8F9A0EB0800A84203D975
:1009A00020680068800725D5206800688007EED59C
:1009B0002DE003690B4202D1C168114206D00269E1
:1009C00023490A4206D1C068084203D1542002E0FC
:1009D000292000E0FC204643009816E0681C11D056
:1009E0002DB100F0C1F9A0EB0800A8420AD9009887
:1009F000B04207D2A06A40F00400A06284F82470DC
:100A000003209DE70098401C0090B042E6D3216887
:100A10006FF012000860A06A40F40070A0622068C5
:100A20008068C0F3424007280CD1207B50B9A06AEF
:100A300020F48070A062A06AC00403D4A06A40F0D1
:100A40000100A06200207BE72000002024499224BE
:100A50004992240070B5044690F8240001280DD076
:100A6000012084F824002046FFF7BCFD02004FF06F
:100A7000000005D084F82400104670BD022070BD2F
:100A8000A16A40F20123994341F48071A1621F4D94
:100A900023681F49AB4218D10E6816F4702F14D08A
:100AA000A66A46F48016A6620E68760505D5A66A83
:100AB00026F4005646F48056A662A66AF6040AD5C5
:100AC000E66A26F00606E66206E0A66A26F48016C6
:100AD000A6625E68E9E7E06284F824006FF0020035
:100AE000186020688368C3F34243072B05D1A842EE
:100AF00008D1096811F4702F04D0816841F4801185
:100B00008160B9E7816841F4A001F9E7002801405C
:100B10000424014010B5044690F82400012807D0B1
:100B2000012084F824002046FFF730FD10B107E0D3
:100B3000022010BDA16A21F4885141F00101A16297
:100B4000002184F8241010BD70B5044600F00CF9A3
:100B50000546601C02D004480078044400F004F903
:100B6000401BA042FAD370BD140000202DE9F84FBD
:100B7000DFF8B8910024A9F1040B23460F2709F1EF
:100B8000040AABF1040EC9E00125A5402A40AA429F
:100B90007DD1674ED1F804C0ACEB0608B44532D025
:100BA00014DCBCF1030F3AD009DCBCF1000F2AD0F1
:100BB000BCF1010F1CD0BCF1020F31D11DE0BCF122
:100BC000110F17D0BCF1120F2AD119E0B8F5881F08
:100BD00019D006DCB8F5803F15D0B8F5801F1FD1BD
:100BE00011E0B8F5001F0ED0B8F5041F18D10AE0C7
:100BF000CB6815E0CB681B1D12E0CB6808330FE013
:100C0000CB680C330CE08B682BB1012B4FF0080341
:100C100003D0456104E0042302E0056100E0002305
:100C2000FF2A01D8064601E000F104064FEA8405D8
:100C300001D9A5F12005D6F8008007FA05FC28EABD
:100C40000C0803FA05F548EA0508C6F800804D6867
:100C5000ED0062D5374DAE6946F00106AE61AD6973
:100C600024F0030605F001050095334D06EB050C55
:100C7000DCF80850A607360F07FA06F825EA08053B
:100C8000DFF8B880404503D14FF0000817E044E09A
:100C9000DFF8AC80404502D14FF001080FE0DFF8EB
:100CA000A480404502D14FF0020808E0DFF89880A8
:100CB000404502D14FF0030801E04FF0040808FA64
:100CC00006F848EA0508CCF808804D68D9F80060B5
:100CD000ED024D4601D5164300E096432E604D6867
:100CE000DAF80060AD02554601D5164300E09643A0
:100CF0002E604D68DBF80060AD035D4601D51643FC
:100D000000E096432E604D68DEF80060ED03754606
:100D100001D5164300E096432E60641C0D682A46F8
:100D2000E5407FF431AFBDE8F88F000008040140D2
:100D300000001110001002400000014000080140B6
:100D4000000C01400010014000140140C26821EA7B
:100D500002030A4043EA0241016170470AB101619E
:100D600070470904FBE700000148806870470000F5
:100D70001400002070B5040025D094F83D00002533
:100D800020B984F83C50204600F04EF9242084F825
:100D90003D002068016821F00101016020680168C0
:100DA00041F4004101602068016821F400410160C4
:100DB00000F0AAFB4D4A6168914201D84C4900E01D
:100DC0004C49884201D2012070BD4B492368B0FBD9
:100DD000F1F15E6826F03F060E435E606368934261
:100DE00006D94FF4967359434FF47A73B1FBF3F17C
:100DF0002368491C1E6A26F03F0631431962616868
:100E0000914210D84900401EB0FBF1F2521CC2F3CF
:100E10000B02042A01D2042022E0B0FBF1F0401CB6
:100E2000C0F30B001CE0A268F2B301EBC10303EBBB
:100E30000116431EB3FBF6F35B1C43F480431B0512
:100E400049D092B301EBC10202EB0111401EB0FB8D
:100E5000F1F0401CC0F30B0040F4804040F400402F
:100E60002168CA694CF6FF739A431043C861D4E9FC
:100E7000071001432068026822F0C002114301609C
:100E8000D4E9030101432068826848F2FF339A43A2
:100E900011438160D4E9050108432168CA6822F042
:100EA000FF021043C86001E00EE016E02068016810
:100EB00041F0010101602564202084F83D00256394
:100EC00084F83E50002070BD01EB4106431EB3FB89
:100ED000F6F35B1CB3E70120C2E701EB4101401EC2
:100EE000B0FBF1F0401CC0F30B00B7E7A086010097
:100EF00080841E0000093D0040420F002DE9F84F9C
:100F00001F4690468A460446DDF82890FFF72CFFDE
:100F1000054694F83D0020287FD11923012240493D
:100F20002046009500F05CFE002876D194F83C0045
:100F3000012872D0012084F83C0020680168C907AC
:100F400003D1016841F0010101602068016821F4CA
:100F500000610160212084F83D00102084F83E00EB
:100F600000262664C4F824806785608D20852D487E
:100F7000E0622B464A465146204600F0B7FD90B944
:100F8000206841698069009036E02A46494620463B
:100F900000F0CCFE50B1206C042804D12068016818
:100FA00041F4007101600120BDE8F88F606A21689A
:100FB00000780861606A401C6062618D491E61852D
:100FC000218D491E89B2218522685369DB435B0765
:100FD0000BD451B100781061606A401C6062608D72
:100FE000401E6085208D401E20852A4649462046A9
:100FF00000F0CAFD0028CED1208D0028C5D154F8BC
:101000003D0B016841F400710160202004F81E09C5
:10101000E67766770020C7E7FFE70220C4E7000015
:10102000020010000000FFFF10B586B00021009103
:1010300001910291039100680F4988421AD10F4C27
:10104000A06940F00800A061A069694600F00800AE
:101050000490C020009012200190032003900848C3
:10106000FFF784FDE06940F40010E061E06900F4FE
:101070000010049006B010BD005400400010024063
:10108000000C014002488168027811448160704779
:1010900014000020074810B5016841F010010160FC
:1010A000032000F0A1F80F2000F006F800F04AF845
:1010B000002010BD0020024030B505461C4887B016
:1010C000816941F400618161806906A900F40060D2
:1010D000009001A800F0F8F900F026FA1549164A28
:1010E000B0FBF1F11548491E0260416040F2E73261
:1010F0000021C0E903218160816100F0DDFB040073
:1011000012D10E4800F006FC04000DD1192000F0A9
:101110003DF8102D07D200222946192000F044F88E
:101120000748056000E0012407B0204630BD0000FC
:101130000010024040420F00002C014064030020D8
:10114000180000200F4808B5816941F00101816154
:10115000816901F001010091C16941F08051C161D3
:10116000C069002200F0805000900F21901E00F016
:101170001BF80548416821F0E06141F000714160D1
:1011800008BD00000010024000000140002809DBFB
:1011900000F01F02012191404009800000F1E02091
:1011A000C0F8001170470000F0B40E4B1B680C46ED
:1011B000C3F30223C3F10705042D00D90425191D2B
:1011C000072901D2002300E0DB1E012606FA05F103
:1011D000491E214099409E40761E16403143F0BC86
:1011E00001F099B80CED00E0064900F0070208682C
:1011F0004FF6FF03184040EA0220034A10430860FC
:10120000704700000CED00E00000FA0510B5014643
:101210000020234C012922D0022939D010291DD1C8
:1012200061682268D20119D51E48C1F38342C903FF
:10123000805C0AD561681B4AC1F34041921E515C33
:10124000194AB2FBF1F1484301E01849484361688B
:10125000490203D440000321B0FBF1F010BD226A23
:10126000C2F30121012903D1920701D5C80310BDA2
:10127000022905D1626A920702D549F6404010BDA5
:101280000329FCD121688903F9D54FF2244010BD10
:1012900000F04AF96168C1F38131491C4900DBE77C
:1012A000001002406431000800127A0000093D007D
:1012B0002DE9F84305460078354CC00754D0E06965
:1012C0000026C00008D4E06940F08050E061E06989
:1012D000012600F0805000902E480168C90512D404
:1012E0000168804641F480710160FFF73DFD0746CB
:1012F00005E000BFFFF738FDC01B642823D8D8F8ED
:101300000000C005F6D5206A10F4407021D0A988ED
:1013100001F4407181421CD0206A1F49012220F44F
:1013200040700A6000220A602062C00711D0FFF7F7
:101330001BFD074641F2883808E000BFFFF714FDA7
:10134000C11B414502D90320BDE8F883206A80070C
:10135000F4D5206A696820F44070084320621EB109
:10136000E06920F08050E0612878800705D560684A
:10137000A96820F44040084360602878C00605D57D
:101380006068E96820F48000084360600020DBE7C3
:101390000010024000700040400442422DE9F04736
:1013A0000F46050061D0434E306800F00700B84298
:1013B00009D2306820F0070038433060306800F010
:1013C0000700B84251D128683B4C810712D540072D
:1013D00003D5606840F4E06060602878000703D5BA
:1013E000606840F4605060606068A96820F0F000B8
:1013F000084360602878C00728D06868012810D0AA
:101400002168022810D0890700292EDA616821F0AE
:10141000030101436160FFF7A7FC804641F2883970
:101420000DE021688903EFE78901EDE7FFF79CFCF8
:10143000A0EB0801494502D90320BDE8F0876068A8
:10144000696800F00C00B0EB810FEFD1306800F05C
:101450000700B8420BD9306820F0070038433060ED
:10146000306800F00700B84201D00120E5E7287895
:10147000400705D56068E96820F4E06008436060D3
:101480002878000706D56068296920F4605040EA92
:10149000C100606000F058F86168084AC1F30311A8
:1014A000515CC8400649086006480068FFF704FE22
:1014B0000020C2E700200240001002407431000802
:1014C00020000020180000200F2202600C4A536800
:1014D00003F003034360536803F0F0038360536831
:1014E00003F4E063C36052684FF4E06303EAD2029E
:1014F00002610448006800F00700086070470000BF
:101500000010024000200240044805490068496874
:10151000044AC1F30221515CC840704720000020FA
:1015200000100240843100080448054900684968F9
:10153000044AC1F3C221515CC8407047200000201A
:1015400000100240843100080E4A51680E4801F034
:101550000C03042B11D0082B0FD10C48C1F383438B
:10156000C903C05C0AD55168084AC1F34041921EC4
:10157000515C054A5043B0FBF1F0704704494843C1
:10158000704700000010024000127A00523100083B
:1015900000093D002DE9F84F040070D02078C04DBF
:1015A000C00749D06868C0F38100012807D0686887
:1015B000C0F38100022809D16868C00306D52868F5
:1015C000800339D560680028E7D035E06068B0F561
:1015D000803F0BD010B1B0F5A02F11D0286820F4B7
:1015E00080302860286820F4802002E0286840F4D9
:1015F00080302860606890B1FFF7B6FB06460AE0CD
:10160000286840F480202860F0E700BFFFF7ACFBBB
:10161000801B642873D828688003F7D50CE0FFF797
:10162000A3FB064605E000BFFFF79EFB801B642876
:10163000F0D828688003F7D420789A4E80074FF0BE
:1016400001094FF0000839D5686810F00C0F07D079
:101650006868C0F38100022809D16868C00306D415
:101660002868800714D52069012808D110E0206976
:10167000B0B1C6F80090FFF777FB074605E00AE136
:10168000FFF772FBC01B0228C4D828688007F7D573
:101690002868616920F0F80040EAC10028600DE088
:1016A000C6F80080FFF760FB074604E0FFF75CFB2D
:1016B000C01B022823D828688007F7D420780007A9
:1016C0002CD57948A169D9B1C0F80090FFF74CFB3F
:1016D000074604E0FFF748FBC01B02280FD8686AE2
:1016E0008007F7D571484FF4FA510068B0FBF1F06C
:1016F000009000BF0098411E0091FAD20EE080E0F9
:10170000C0F80080FFF730FB074604E0FFF72CFB32
:10171000C01B022875D8686A8007F7D42078400774
:1017200060D5E8690027C00008D4E86940F080501F
:10173000E861E869012700F0805000905C4801688A
:10174000C90513D40168834641F480710160FFF735
:101750000BFB824606E000BFFFF706FBA0EB0A008A
:1017600064284ED8DBF80000C005F5D5E0680128F4
:101770000AD008B1052813D0286A20F00100286299
:10178000286A20F0040002E0286A40F00100286284
:10179000E06841F2883B98B1FFF7E6FA82460BE039
:1017A000286A40F004002862EEE700BFFFF7DCFA89
:1017B000A0EB0A0159455AD8286A8007F6D50CE0F3
:1017C000FFF7D2FA824605E0FFF7CEFAA0EB0A0156
:1017D00059454CD8286A8007F6D41FB1E86920F033
:1017E0008050E861E06988B36968C1F3810102292A
:1017F00044D00228C6F8608004D0FFF7B5FA04464A
:1018000038E034E0FFF7B0FA074604E0FFF7ACFA3F
:10181000C01B02282BD828688001F7D4206AB0F5B5
:10182000803F05D16868A16820F4003008436860F3
:10183000D4E908010843696821F474110843686019
:10184000C6F86090FFF790FA044606E025E000BF76
:10185000FFF78AFA001B022809D828688001F7D50B
:101860001BE000BFFFF780FA001B022802D903200B
:10187000BDE8F88F28688001F4D40EE00128F7D085
:101880006868226A00F48031914204D1616A00F4F0
:101890007010884201D00120EAE70020E8E700004C
:1018A000001002400000424280044242200000201A
:1018B000007000407047704710B5040003D094F8E2
:1018C0003D0010B107E0012010BD002084F83C006D
:1018D000204600F01EF8022084F83D00211D2068FB
:1018E00000F0DCFC012084F8460084F83E0084F817
:1018F0003F0084F8400084F8410084F8420084F8F6
:10190000430084F8440084F8450084F83D0000203A
:1019100010BD704790F83D10012901D0012070479B
:10192000022180F83D100168CA6842F00102CA60D5
:1019300000680B49884208D0B0F1804F05D00949B2
:10194000884202D00849884204D1816801F0070129
:10195000062903D0016841F00101016000207047B1
:10196000002C0140000400400008004070472DE9B1
:10197000F04104460068C66805694FF00007A907F2
:1019800013D5B10711D5F91E016101202077206818
:1019900080698007204602D0FFF7E8FF04E000F0EE
:1019A0007EF8204600F07CF82777680716D5700788
:1019B00014D521686FF004000861022020772068A8
:1019C000806910F4407F204602D0FFF7CFFF04E08B
:1019D00000F065F8204600F063F82777280715D552
:1019E000300713D521686FF00800086104202077C4
:1019F0002068C0698007204602D0FFF7B7FF04E0E7
:101A000000F04DF8204600F04BF82777E80616D591
:101A1000F00614D521686FF01000086108202077C7
:101A20002068C06910F4407F204602D0FFF79EFF77
:101A300004E000F034F8204600F032F82777E80799
:101A400008D0F00706D021686FF001000861204639
:101A500000F028F8280608D5300606D521686FF072
:101A6000800008612046FFF725FF680608D570064C
:101A700006D521686FF040000861204600F01CF890
:101A8000A8060AD5B00608D521686FF020000861C5
:101A90002046BDE8F041FFF70EBFBDE8F08170477A
:101AA0007047000000680349884201D1FFF7EABA95
:101AB00070470000002C01407047FEE701684A694A
:101AC000D24352050FD46FF480624A61002140F87E
:101AD000301F202242738173026942F004020261C6
:101AE000017301207047002070470000F8B50446DC
:101AF000C06A1E460D461746082807D0012805D0A3
:101B000010F5803F02D0206B122804D120680168B4
:101B100041F480710160134600224FF0011120460C
:101B2000009600F05DF840B120680068C00502D55D
:101B30004FF4007020640320F8BD2069B0F5804F99
:101B40000ED00620216800EAD51040F0F0000861B0
:101B500033463A460B49204600F08AF878B902E04D
:101B600005F0FE0000E0E8B221680861054933464F
:101B70003A46891F204600F07BF80028DCD001207F
:101B8000F8BD00000800010070B516460D46044679
:101B90001EE02046FFF792FF08B1012070BD681CCF
:101BA00016D0FFF7E1F8801BA84200D885B920685D
:101BB0004069C04340070BD5002044F8300F202176
:101BC0006173A073216941F0200121612073E4E772
:101BD00020684069C0434007DBD4002070BD00008E
:101BE0002DE9F047984617460D460446C1F30746CF
:101BF000DDF820902AE000BFB8F1FF3F26D0FFF7C4
:101C0000B3F8A0EB0901414502D8B8F1000F1DD18E
:101C10002068012E16D0806925EA00000004000C1F
:101C200012D00020B84211D1002044F8300F2021FA
:101C30006173A073216941F02001216120730120AB
:101C4000BDE8F0874069E7E70120EBE72068012E57
:101C50000AD0806925EA00000004000C06D00020AC
:101C6000B842C9D00020EBE74069F3E70120F7E76D
:101C70002DE9F047984616460D4604464FF00009F8
:101C80004FF0200AC1F3074723E020684069C043B2
:101C9000400515D42068016841F400710160216895
:101CA0006FF480604861C4F8309084F83DA084F8F7
:101CB0003E90216C41F00401216484F83C9021E0C5
:101CC000701C06D0FFF750F8A0EB0800B04203D814
:101CD00016B1012F1FD021E02068012F15D0806997
:101CE00025EA00000004000C18D000BF44F8309F23
:101CF00084F80DA084F80E90216941F02001216143
:101D000084F80C900120BDE8F087406925EA0000C6
:101D10000004000CEAD12068406901E02068806975
:101D200025EA00000004000CAFD1ECE770B51646C0
:101D30000D4604461EE02046FFF7C0FE08B1012014
:101D400070BD681C16D0FFF70FF8801BA84200D8A2
:101D500085B920684069C04300060BD5002044F8CF
:101D6000300F20216173A073216941F020012161AE
:101D70002073E4E720684069C0430006DBD40020FC
:101D800070BD10B5012000F03DF8BDE81040022004
:101D9000FEF7DABE012805D04031C8B240F080001D
:101DA00000F030B88031C8B2FAE710B5332000F047
:101DB00029F8322000F026F83220FEF7C5FE282050
:101DC00000F020F83220FEF7BFFE012000F01AF8E4
:101DD0003220FEF7B9FE062000F014F83220FEF79C
:101DE000B3FE0C2000F00EF83220FEF7ADFE02200C
:101DF00000F008F83220FEF7A7FEBDE81040802072
:101E0000AFF300801CB500F0F00141F00C028DF83A
:101E1000042041F0080100018DF8051040F00C018C
:101E20008DF8061040F008008DF80700642000903F
:101E3000042301AA4E210248FFF760F81CBD0000F0
:101E4000BC0000201CB500F0F00141F00D028DF83F
:101E5000042041F0090100018DF8051040F00D014A
:101E60008DF8061040F009008DF8070064200090FE
:101E7000042301AA4E210248FFF740F81CBD0000D0
:101E8000BC0000201CB5024603A16846FEF7ECF931
:101E9000684600F003F81CBD2564000010B5044638
:101EA00002E0641CFFF7CEFF20780028F9D110BDB6
:101EB0003EB5002410480094019402940D498460BA
:101EC000016004730475012505614FF460214460CD
:101ED000C161FEF767FC08B172B6FEE7CDE90045C7
:101EE000694605480294FEF7DBFB002801D072B674
:101EF000FEE73EBD002401408C0000202DE9F041AA
:101F000086B000262C4800960196029603968169B9
:101F100041F020018161816901F020010491816912
:101F200041F004018161816901F00401049181693A
:101F300041F008018161816901F008010491816922
:101F400041F01001816180691C4F00F01000049085
:101F50000022F8213846FEF701FFDFF864800022F6
:101F600007214046FEF7FAFE0124F820CDE90004DF
:101F7000022569463846CDE90245FEF7F7FD072000
:101F8000CDE9000469464046CDE90245FEF7EEFD85
:101F90006003CDE9000469460A48CDE90245FEF731
:101FA000E5FDE002CDE90006694602944046FEF7F1
:101FB000DDFD06B0BDE8F0810010024000080140E0
:101FC000000C014000100140FEE7FEE770B5114D26
:101FD000044608212846FEF7B9FEE01704EB90748A
:101FE000A01000F00FFA10212846FEF7AFFEA01057
:101FF00000F008FA20212846FEF7A8FEA01000F005
:1020000001FA69140448FEF7A1FEA010BDE8704073
:1020100000F0F8B90008014000100140304C4FF4C6
:1020200077764FF47A752F48FEF714FD29462D4830
:10203000FEF772FC2B48FEF7B1FB20612948FEF742
:1020400069FDFFF79EFE08210120FFF7A3FE26A0F1
:10205000FFF724FF0C210120FFF79CFE2069FFF70A
:1020600011FF2069FEF7FEFA2069401E072808D2FA
:10207000606800F017FAA06800F014FAE06800F059
:1020800011FA2069A0F10B01B14207D8A06800F055
:1020900009FAE06800F006FA60681AE0A0F24D4123
:1020A00040F28332914207D2606800F0FBF9E068A9
:1020B00000F0F8F9A0680CE040F65331A0F63500C6
:1020C000884208D2606800F0EDF9A06800F0EAF9F3
:1020D000E06800F0CDF9284600F094F9A3E700008D
:1020E000000000208C00002052504D3A00000000FB
:1020F000DFF86C801B4D1C4C4FF4005740F2E23669
:102100004FF4C879206905281ADA00210846FFF73C
:1021100041FE16A0FFF7C2FE002239464046FEF7F8
:102120001DFE002208212846FEF718FE002210217D
:102130002846FEF713FE002220212846FEF70EFE59
:102140002069801FB042DDD200210120FFF722FE6E
:1021500009A0FFF7A3FE4846FFF738FFD2E70000CB
:10216000001001400008014000000020436172207F
:1021700073746F7000000000476561723A310000AF
:1021800000210120FFF706FE03A0FFF787FE96203F
:10219000FFF71CFFF4E70000476561723A32000068
:1021A000104C40F2833540F2C5762069A0F6350127
:1021B000A94208D200210120FFF7ECFD0AA0FFF799
:1021C0006DFE50200BE0A0F6C330B042EDD20021EE
:1021D0000120FFF7DFFD06A0FFF760FE2820FFF7D4
:1021E000F5FEE2E700000020476561723A33000027
:1021F000476561723A34000010B5502080F31188B1
:10220000BFF34F8FBFF36F8F00F05EFE18B104492C
:102210004FF080500860002080F3118810BD00004E
:1022200004ED00E030B593B028216846FEF7D2F8FF
:1022300014210AA8FEF7CEF8002401200F940225ED
:102240000490009510201194059010941294079416
:102250006846FFF79FF908B172B6FEE70F20CDE997
:102260000A040C940D9400210AA80E94FFF796F826
:1022700008B172B6FEE70FA80F951194FFF718F892
:10228000002801D072B6FEE713B030BD70470000E1
:102290000148FFF76CBB000064030020F0B5026842
:1022A000194B1A4C1A4D4FF08047984205D0B8424E
:1022B00003D0A04201D0A84203D122F070064A68A0
:1022C0003243984205D0B84203D0A04201D0A84280
:1022D00003D122F44074CA6822434C6922F0800280
:1022E000224302608A68C2620A688262984201D10F
:1022F00009690163012141610169C90703D00169CD
:1023000021F001010161F0BD002C014000040040FA
:1023100000080040FEE70907090E002804DB00F171
:10232000E02080F80014704700F00F0000F1E0207A
:1023300080F8141D7047EFF30580002800D00120BD
:10234000704700009CB0FEF7A5FEFFF76BFFFFF79C
:10235000D5FDFFF7ADFD244822494FF480420160CE
:102360002249416000218160C0E90312416181611D
:10237000C1610162FEF7FEFC08B172B6FEE7FFF72D
:1023800014FDFFF7FEFC1C2219496846FDF7F0FF1B
:102390000021684600F042F8164C15491C222060C6
:1023A0001C3107A8FDF7E4FF002107A800F036F86C
:1023B0000F4960601C2238310EA8FDF7D9FF0021BB
:1023C0000EA800F02BF80A49A0601C22543115A871
:1023D000FDF7CEFF002115A800F020F8E06000F026
:1023E00018F8FEE700540040BC000020A086010061
:1023F000E03000080000002001460020842900D0C1
:10240000C81C704710B500B9012000F083FB002004
:1024100010BD10B500F0E2FB002010BD7FB50D46E9
:1024200004464169B0F9080081B1A16971B1FFF7B3
:10243000E3FFD4E905128DE80700D4E900102B462C
:10244000226900F016FD039004B070BDFFF7D4FFC1
:1024500003A9CDE90001208A2B4682B2D4E90010FD
:1024600000F0DAFC012801D00020EDE70398EBE74B
:1024700010B50446FFF75FFF002820460BD000F0A0
:10248000EBFD012809D1064900070860BFF34F8F13
:10249000BFF36F8F01E000F063FB002010BD000070
:1024A00004ED00E010B500F0CFFB002010BD0000EF
:1024B0002DE9F041184C0F460546E6682068001DDE
:1024C00000F036FA38B9206890F82C1001208840C6
:1024D000216981432161681C07D137B12168BDE8BA
:1024E000F0410E48091D00F067BA20683544B54236
:1024F0004560216805D2A06BBDE8F041091D00F0E0
:1025000043BA606B091D00F03FFAA06A854200D211
:10251000A562BDE8F08100002400002088040020AE
:102520002DE9F041054600F053FA2E4CA068401CFE
:10253000A06020682C4F10B1606940B32DE0256089
:10254000A068012829D1002606EB860007EB800051
:1025500000F00CFA761C072EF6D323488C3000F0DE
:1025600005FA2148A03000F001FA1F48B43000F00D
:10257000FDF91D48C83000F0F9F91B48DC3000F0C7
:10258000F5F919488C3060631430A06305E02068C9
:10259000E96AC06A884200D82560606A401C6062AF
:1025A000E96A0120226988401043206101EB810023
:1025B00007EB8000291D00F0FFF900F029FA60699F
:1025C00000280CD02068E96AC06A884207D207490F
:1025D0004FF080500860BFF34F8FBFF36F8FBDE89F
:1025E000F081000024000020AC03002004ED00E096
:1025F00010B5044690F8510058B101280CD00228BB
:102600000FD0502080F31188BFF34F8FBFF36F8F2F
:10261000FEE7206B00F010FA2046BDE8104000F005
:102620000BBA10BD10484FF44061420706D0C01DE0
:102630000D4920F00700411AC1F540610B4A002303
:102640000144C2E900030839183A21F0070111607A
:102650004B600B600B1AC0E9001393604FF0004011
:1026600053605061704700009C04002078000020F7
:10267000144E154CA6F1C8074FF08058DFF84C9067
:1026800012E000BF00F0A4F9F068C568281D00F052
:102690004FF9A068401EA0606068401E606000F0B6
:1026A000B7F92846FFF7A4FF60680028EAD1386828
:1026B0000128F9D9C9F80080BFF34F8FBFF36F8F9E
:1026C000F2E70000740400202400002004ED00E084
:1026D0002DE9F0479A46DDE9098481466FF003034E
:1026E000206B03EB82021044089E20F00707780756
:1026F00007D0502080F31188BFF34F8FBFF36F8F47
:10270000FEE7002561B1002023180A5C83F834201D
:102710000A5C12B1401C1028F6D384F8435001E043
:1027200084F83450072E00D30626E662C4E911650A
:10273000201D00F026F904F1180000F022F92461B0
:10274000C6F107006462A061E56484F85050524607
:102750004946384600F0DAF82060B8F1000F01D0A1
:10276000C8F80040BDE8F08730B5114900E01146D7
:102770000A688242FBD34B685C18844203D14068EC
:1027800018444860084643681C18944209D1084C14
:10279000183C2468A24209D052681A4442600A6870
:1027A00012680260814200D0086030BD0460F9E721
:1027B000780000200648416B096829B1416BC9685F
:1027C000C9684968816270474FF0FF31FAE700003D
:1027D0002400002008484068401C4FF0500080F35F
:1027E000118804D0BFF34F8FBFF36F8FFEE7BFF3A5
:1027F0004F8FBFF36F8FFEE780000020002150B1A4
:102800000A4B42699A420FD1806AA3F12802904292
:102810000AD040B108E0502080F31188BFF34F8FF9
:10282000BFF36F8FFEE70121084670478804002040
:102830002DE9F0410546002700F064FA324E306879
:1028400008B9FFF7EFFE706905424ED1C5B30835F0
:1028500068070ED005F00700C0F1080005446807BE
:1028600007D0502080F31188BFF34F8FBFF36F8FD5
:10287000FEE72DB37068854237D8234818300146EB
:102880000C6801E020460C466168A94202D221682A
:102890000029F7D131688C4227D007682168016090
:1028A00060680837411B10290FD96019420708D00A
:1028B000502080F31188BFF34F8FBFF36F8FFEE777
:1028C00013E041606560FFF74FFF61687068401A70
:1028D0007060B268904200D2B0607069014300201D
:1028E000C4E90001F068401CF06000F053FB780779
:1028F00007D0502080F31188BFF34F8FBFF36F8F45
:10290000FEE73846BDE8F0816000002010B5031FE7
:102910004FF080741C601B1F21F001011960191F0A
:10292000024B0B60143940380A6010BDD5270008EF
:10293000D0E9013201699A60D0E901235A604A68FE
:10294000824201D182684A60002202610868401E0A
:102950000860086870470000034B036003F15400EF
:1029600008608020106070471001002000F108010D
:102970004FF0FF32C0E90112C16001610021016026
:10298000704700210161704730B50B685A1C02D0B6
:1029900000F1080202E0026904E02246546825685A
:1029A0009D42FAD953684B6099608A605160086112
:1029B0000168491C016030BD42684A6093688B60C1
:1029C00093685960916008610168491C0160704713
:1029D000502080F31188BFF34F8FBFF36F8F0A49E8
:1029E0004868401C486001280CD10848006810F075
:1029F000FF0F07D0502080F31188BFF34F8FBFF334
:102A00006F8FFEE7704700008000002004ED00E0BB
:102A10000849486828B1401E486001D180F31188F8
:102A20007047502080F31188BFF34F8FBFF36F8F33
:102A3000FEE700008000002070B500282AD0164D67
:102A4000A0F1080460686969084207D1502080F34A
:102A50001188BFF34F8FBFF36F8FFEE722683AB143
:102A6000502080F31188BFF34F8FBFF36F8FFEE7C5
:102A70008843606000F046F96068696808446860EF
:102A80002046FFF771FE2869401C2861BDE87040B0
:102A900000F080BA70BD0000600000204FF0E02020
:102AA00000210161816105494FF47A720968B1FB27
:102AB000F2F1491E416107210161704720000020A9
:102AC00010B5FDF7ADFB114910280ED300F1E02041
:102AD00090F8F0030A78904207D2502080F31188D2
:102AE000BFF34F8FBFF36F8FFEE709480068896817
:102AF00000F4E060884207D9502080F31188BFF3CA
:102B00004F8FBFF36F8FFEE710BD000080000020E5
:102B10000CED00E010B5020014D00F48006B38B186
:102B2000502080F31188BFF34F8FBFF36F8FFEE704
:102B300000F0E8F800211046FFF7BAFC00F02AFA8E
:102B4000002807D105494FF080500860BFF34F8F30
:102B5000BFF36F8F10BD00002400002004ED00E0E3
:102B600070B504002BD01A4D286884422FD0FFF78F
:102B70002FFF2046FFF742FEE8B1201DFFF7D8FEE9
:102B8000E06A01212A69814011432961114900EB62
:102B9000800001EB8000211DFFF70EFFE06A29682D
:102BA000C96A884207D30C494FF080500860BFF3D0
:102BB0004F8FBFF36F8FBDE87040FFF729BF5020E4
:102BC00080F31188BFF34F8FBFF36F8FFEE770BDA7
:102BD00024000020AC03002004ED00E010B586B016
:102BE0000024039405AA04A903A80494FFF7B4FEE3
:102BF000DDE903010094CDE9011000230EA1104886
:102C0000059A00F036F90F490028C86211D050200B
:102C100080F31188BFF34F8FBFF36F8F4FF0FF30FA
:102C2000886201204861CC6006B0BDE8104000F029
:102C30009FB806B010BD000049444C45000000009C
:102C4000712600082400002070B50446FFF7C0FE7E
:102C5000294D04B92C68201DFFF76AFE58B9E06AB7
:102C6000264A00EB800152F8211021B90121814050
:102C7000286988432861A06A18B104F11800FFF799
:102C800057FE1E48211DDC30FFF796FE94F85000D9
:102C90000026012801D184F85060FFF7B9FE686969
:102CA00028B1FFF795FEFFF785FDFFF7B1FE286815
:102CB000844213D1686990B1286B38B1502080F3F9
:102CC0001188BFF34F8FBFF36F8FFEE70C494FF0B2
:102CD00080500860BFF34F8FBFF36F8F70BD074800
:102CE000DC300068A968884201D12E6070BDBDE863
:102CF000704000F00FB8000024000020AC0300205A
:102D000004ED00E00248016B491C016370470000BC
:102D1000240000201448016B11B10121C1617047EA
:102D20000021C1610169B1FA81F1C1F11F0101EB1B
:102D300081020E4951F822306BB101EB820101F1A1
:102D400008034A6852684A609A4201D152684A6050
:102D5000D16801607047502080F31188BFF34F8F16
:102D6000BFF36F8FFEE7000024000020AC030020BB
:102D70001CB5264908780190FF20087008788DF866
:102D800000009DF800009DF8002000F0F000904247
:102D900007D0502080F31188BFF34F8FBFF36F8FA0
:102DA000FEE79DF800001A4C00F05000207007204C
:102DB000A06005E09DF8002052008DF80020401E24
:102DC0009DF800201206F5D4A060032807D05020FB
:102DD00080F31188BFF34F8FBFF36F8FFEE74FF47F
:102DE0004070A060019808700A48016841F47001C1
:102DF0000160016841F070410160FFF74FFE002063
:102E00006060FDF7D7F900201CBD000000E400E081
:102E10008000002020ED00E02DE9FF5F8346DDE922
:102E20000E87994616468A469000FFF701FD050079
:102E30001CD05420FFF7FCFC040014D000202563B4
:102E400084F85100CDE90240CDE900874B46324677
:102E500051465846FFF73CFC2046FFF761FB012036
:102E600004B0BDE8F09F2846FFF7E6FD4FF0FF30C5
:102E7000F6E7F0B585B0DDE90B640A9DA6B1DCB1DB
:102E8000542700972663022684F85160002604AF79
:102E9000CDE90246CDE90057FFF71AFC2046FFF7BF
:102EA0003FFB049805B0F0BD502080F31188BFF3BC
:102EB0004F8FBFF36F8FFEE7502080F31188BFF371
:102EC0004F8FBFF36F8FFEE72DE9F0412F4C0026A7
:102ED000206B28B1A069401CA0613046BDE8F0819C
:102EE000E5686D1CE56013D1606B006838B1502057
:102EF00080F31188BFF34F8FBFF36F8FFEE7606BD6
:102F0000A16B6163A063206A401C2062FFF752FC42
:102F1000A06ADFF87C80854209D3606B0068A0B1AD
:102F2000606BC068C7687868854211D2A06220686B
:102F3000C06A00EB800158F82100012800D9012661
:102F4000E0690028C9D00126C7E74FF0FF30EDE760
:102F5000381DFFF7EDFCB86A18B107F11800FFF74C
:102F6000E7FCF96A0120226988401043206101EBE7
:102F7000810108EB8100391DFFF71EFDF86A216809
:102F8000C96A8842C9D30126C7E70000240000208F
:102F9000AC0300202DE9F0472C4D00242746286B78
:102FA00038B1FFF715FD286B401E2863286B40B130
:102FB00046E0502080F31188BFF34F8FBFF36F8F2F
:102FC000FEE7A968224E0120D1B3A6F1B4098046DC
:102FD0003068E8B1F068C46804F11800FFF7A8FC95
:102FE000201DFFF7A5FCE06A2A6908FA00F11143E9
:102FF000296100EB800109EB8100211DFFF7DCFC5A
:10300000E06A2968C96A8842E2D3C5F81C80DFE714
:103010000CB1FFF7CFFBAC6944B14646FFF754FF54
:1030200000B1EE61641EF9D10020A861E86938B1F1
:103030000849012738070860BFF34F8FBFF36F8F30
:10304000FFF7E6FC3846BDE8F087000024000020CA
:103050006004002004ED00E02DE9F04100270400A9
:1030600015D0FFF72DFD5020EFF3118580F3118867
:10307000BFF34F8FBFF36F8F2046FFF7BFFB30B317
:10308000154E306B58B104F1180114481DE0502062
:1030900080F31188BFF34F8FBFF36F8FFEE7E06AB5
:1030A0003168C96A884200D30127201DFFF740FC20
:1030B000E16A0120326988401043306101EB8100F0
:1030C0000649B43901EB8000211DFFF775FC85F33B
:1030D00011883846BDE8F0812400002060040020FB
:1030E000B03100081D2000080200000000000000B0
:1030F0008000000000000000000000008C3100088B
:10310000F120000800000000000000008000000026
:103110000000000000000000983100088121000834
:10312000000000000000000080000000000000001F
:1031300000000000A4310008A121000800000000E8
:1031400000000000800000000000000000000000FF
:10315000010202030405060708090A0B0C0D0E0FF5
:103160001010010202030405060708090A0B0C0DE2
:103170000E0F101000000000000000000102030408
:103180000607080900000000010203046D7954617C
:10319000736B3032000000006D795461736B303313
:1031A000000000006D795461736B30340000000042
:1031B00064656661756C745461736B00DC31000882
:1031C000000000208C000000280100086832000880
:1031D0008C0000207416000044010008000000006C
:1031E00000000000000000000000000000000000DF
:1031F00001000000100000000000000000127A0032
:1032000000000000000000000000000000000000BE
:1032100000000000000000000000000000000000AE
:10322000000000000000000000000000000000009E
:10323000000000000000000000000000000000008E
:10324000000000000000000000000000000000007E
:10325000000000000000000000000000000000006E
:08326000AAAAAAAA00000000BE
:04000005080000ED02
:00000001FF
